S0180000456173794156523132385F57353130302E737265637A
S11300004EC0000069C0000067C0000065C0000069
S113001063C0000061C000005FC000005DC000005C
S11300205BC0000059C0000057C0000055C000006C
S113003053C0000051C000004FC000004DC000007C
S11300404BC0000049C0000047C0000045C000008C
S113005043C0000041C000003FC000003DC000009C
S11300603BC0000039C0000037C0000035C00000AC
S113007033C0000031C000002FC000002DC00000BC
S11300802BC0000029C0000027C00000A303A70361
S1130090AC03B103B603BB03C003C5035A00112468
S11300A01FBECFEFD0E1DEBFCDBF11E0A0E0B1E0D5
S11300B0E8E1F9E000E00BBF02C007900D92A63121
S11300C0B107D9F723E0A6E1B1E001C01D92AC323B
S11300D0B207E1F70CD41EC493CFFC018081918157
S11300E090931E0180931D012281338130931C0162
S11300F020931B014481558150931A0140931901A7
S1130100668177817093180160931701109216012C
S1130110892B39F0232B29F0452B19F081E08093AA
S1130120160108951F93CF93DF9320911601222384
S113013029F1C62F192FD82FE0911D01F0911E012E
S11301400995E0911B01F0911C0180EF0995E09164
S11301501B01F0911C01812F0995E0911B01F09185
S11301601C018D2F0995E0911B01F0911C018C2F2E
S11301700995E0911901F0911A010995DF91CF9148
S11301801F910895CF93DF9320911601222331F11B
S1130190D92FC82FE0911D01F0911E010995E0911E
S11301A01B01F0911C018FE00995E0911B01F09176
S11301B01C018D2F0995E0911B01F0911C018C2FDE
S11301C00995E0911B01F0911C0180E00995C82F6D
S11301D0E0911901F0911A0109952C2F822FDF91DA
S11301E0CF910895E0911701F0911801309711F023
S11301F0099504C060E880E090E094DF8FE19EE41C
S11302000197F1F700C000000895CF93DF930097A2
S113021009F479C0EC016E8581E090E083DF6F859D
S113022082E090E07FDF688983E090E07BDF69898A
S113023084E090E077DF8FE99FE00197F1F700C059
S11302400000688189E090E06DDF69818AE090E0D8
S113025069DF6A818BE090E065DF6B818CE090E080
S113026061DF6C818DE090E05DDF6D818EE090E078
S113027059DF8FE99FE00197F1F700C000006A851C
S113028085E090E04FDF6B8586E090E04BDF6C8586
S113029087E090E047DF6D8588E090E043DF8FE9F9
S11302A09FE00197F1F700C000006E818FE090E0BD
S11302B039DF6F8180E190E035DF688581E190E08E
S11302C031DF698582E190E02DDF8FE99FE00197BE
S11302D0F1F700C000006FE087E190E023DF60EAFF
S11302E088E190E01FDF8FE99FE00197F1F700C0FC
S11302F0000065E58AE190E015DF65E58BE190E0BB
S113030011DF80E001C08FEFDF91CF910895C09895
S11303100895C09A08958FB9779BFECF8FB1089541
S1130320BC9AC49AC4988FE39CE90197F1F700C082
S11303300000C49A9FEF21EE84E091502040804059
S1130340E1F700C000000895CF93DF93833068F491
S1130350C82FD0E0DC2FCC27CF5FDB4F60E1CE018C
S1130360E1DECE010FDF8111FCCFDF91CF91089543
S1130370AF92BF92CF92DF92EF92FF920F931F93AF
S1130380CF93DF93C82F7B01A42ED22FB32E8230BC
S113039008F048C0082F10E00C5F1F4F102F0027F3
S11303A0680183E0C80ED11CC601ECDE811102C0D5
S11303B08C2FCADF6A2DC801B5DEF7016081C80140
S11303C00C96B0DEF7016181C8010D96ABDEF70132
S11303D06281C8010E96A6DEF7016381C8010F96FB
S11303E0A1DE6B2DC80140969DDE6D2FC80141969C
S11303F099DE0F5F1F4F61E0C80194DEC801C2DEC1
S11304008111FCCFC601BEDE833141F464E0C80132
S113041089DEC801B7DE8111FCCF05C08C2F94DFC3
S1130420CFEF01C0CFEF8C2FDF91CF911F910F91B0
S1130430FF90EF90DF90CF90BF90AF900895CF934F
S1130440DF93833068F4C82FD0E0DC2FCC27CF5F54
S1130450DB4F68E0CE0166DECE0194DE8111FCCF75
S1130460DF91CF9108952F923F924F925F926F92B6
S11304707F928F929F92AF92BF92CF92DF92EF9230
S1130480FF920F931F93CF93DF93782E7B018A0102
S1130490452B09F460C081E0871508F45EC0272C61
S11304A0312C210194E0490E511C542C4424520156
S11304B0E0E2AE0EB11CC50165DEC82FD0E0DC2F32
S11304C0CC276201F1E2CF0ED11CC6015BDEC80F5E
S11304D0D11DC017D10708F45FC041C08FE99FE068
S11304E00197F1F700C00000C5014CDEC82FD0E031
S11304F0DC2FCC27C60146DEC80FD11D91E0891A36
S1130500910821F4872D9BDF8FEF5CC0C017D107C2
S113051028F325C02197C6019770F70161917F01E7
S1130520820D931DFFDDFFEFCF1ADF0A209791F7AD
S1130530060D171D612FC501F5DD602FC401F2DD25
S11305408FEF481A580A60E2C201ECDDC2011ADEDC
S11305508111FCCF37C08FEF35C08FEF33C052010C
S113056094E2A90EB11CC5010DDE682E4201E5E23C
S11305708E0E911CC40106DE712C762C6624680E46
S1130580711CF8E02F0E311C322C2224330C330C56
S1130590330C6301E801BECF8FE99FE00197F1F7C7
S11305A000C00000C501EEDDC82FD0E0DC2FCC2751
S11305B0C601E8DDC80FD11D88248394689499246A
S11305C093F8A4CFDF91CF911F910F91FF90EF90FB
S11305D0DF90CF90BF90AF909F908F907F906F905F
S11305E05F904F903F902F9008954F925F926F923B
S11305F07F928F929F92AF92BF92CF92DF92EF92AF
S1130600FF920F931F93CF93DF93823008F060C063
S1130610C42ED52E9FEFC91691E0D90630F00F2EC7
S1130620FEEFCF2EDD24D394F02DC82FD0E05E0151
S113063084E0A80EB11CBA2CAA24350198E2690EF4
S1130640711CC3019FDDE82E250189E2480E511C6F
S1130650C20198DDF12CFE2CEE24E80EF11CC1142D
S1130660D104B9F02C96DC2FCC27DD0FDD0FDD0F84
S11306704701860101501109C40197708C0F9D1F19
S113068081DD9FEF891A990A0115110599F7EC0C80
S1130690FD1CE2E2F1E001900020E9F73197AF019F
S11306A04252514062E271E080912101DCDE6F2D03
S11306B0C30138DD6E2DC20135DD60E4C50101964C
S11306C031DD85E38A95F1F7000080E090E002C017
S11306D08FEF90E0DF91CF911F910F91FF90EF90FA
S11306E0DF90CF90BF90AF909F908F907F906F904E
S11306F05F904F9008950F931F93CF93DF938230B1
S113070098F4C82FD0E02496DC2FCC27CE0186960F
S113071039DD90E0182F0027CE01879633DD98014C
S1130720280F311DC90102C080E090E0DF91CF9114
S11307301F910F91089590E08830910550F5FC01C8
S1130740EA5BFF4FD7C085B3805885BB089595B346
S113075080E4892785BB089595B380E2892785BB0A
S1130760089595B380E1892785BB089595B388E002
S1130770892785BB089595B384E0892785BB0895AF
S113078095B382E0892785BB089595B381E08927D5
S113079085BB0895CF93A79AA69AA59AA49AA39ADB
S11307A0A29AA19AA09AC0E08C2FC5DF2FEF89E608
S11307B098E1215080409040E1F700C00000CF5FF5
S11307C0C83091F7CF91089587E087BBC09A83E53D
S11307D08DB9709A08951092210180E094E090936D
S11307E02B0380932A03E2E2F3E087E891E091830C
S11307F080838BE891E09383828389E891E09583F9
S1130800848380E991E097838683CF0166DCEADC08
S113081080E091E0FACC0895BDDF2FEF81EE94E003
S1130820215080409040E1F700C00000CDDF2FEF61
S113083083ED90E3215080409040E1F700C0000038
S1130840CACF089580912A0390912B0303969ADCD2
S1130850883109F448C028F4882341F08731C9F06D
S113086008958A51843008F041C03DC028E537E03E
S113087041E062E171E0809121017ADD90912101F2
S1130880891334C08FE99FE00197F1F700C000009D
S11308900895809121012FDF9093200180931F01FF
S11308A00097E1F0AC0162E271E0809121019DDEEC
S11308B0892B29F06CE970E082E291E024D0E2E235
S11308C0F1E001900020E9F73197AF014252514025
S11308D062E271E080912101C6CD089595E39A9575
S11308E0F1F700000895809121012ECD089594DF41
S11308F0A9DFFECFEE0FFF1F0024001C0BBE0790E4
S1130900F691E02D0994FB01DC0105900D92002085
S10B0910E1F70895F894FFCF0C
S11309180008DC00000AAC104C5AFFFFFF00AC10C2
S10909284C01AC104C6B05
S9030000FC
